{
  "contractName": "AspirasiStorage",
  "abi": [
    {
      "anonymous": false,
      "inputs": [
        {
          "indexed": false,
          "internalType": "uint256",
          "name": "id",
          "type": "uint256"
        },
        {
          "indexed": false,
          "internalType": "string",
          "name": "judul",
          "type": "string"
        },
        {
          "indexed": false,
          "internalType": "string",
          "name": "hash",
          "type": "string"
        },
        {
          "indexed": false,
          "internalType": "address",
          "name": "pengirim",
          "type": "address"
        },
        {
          "indexed": false,
          "internalType": "uint256",
          "name": "timestamp",
          "type": "uint256"
        }
      ],
      "name": "AspirasiDisimpan",
      "type": "event"
    },
    {
      "inputs": [
        {
          "internalType": "uint256",
          "name": "",
          "type": "uint256"
        }
      ],
      "name": "aspirasis",
      "outputs": [
        {
          "internalType": "uint256",
          "name": "id",
          "type": "uint256"
        },
        {
          "internalType": "string",
          "name": "judul",
          "type": "string"
        },
        {
          "internalType": "string",
          "name": "hash",
          "type": "string"
        },
        {
          "internalType": "address",
          "name": "pengirim",
          "type": "address"
        },
        {
          "internalType": "uint256",
          "name": "timestamp",
          "type": "uint256"
        }
      ],
      "stateMutability": "view",
      "type": "function",
      "constant": true
    },
    {
      "inputs": [],
      "name": "totalAspirasi",
      "outputs": [
        {
          "internalType": "uint256",
          "name": "",
          "type": "uint256"
        }
      ],
      "stateMutability": "view",
      "type": "function",
      "constant": true
    },
    {
      "inputs": [
        {
          "internalType": "string",
          "name": "_judul",
          "type": "string"
        },
        {
          "internalType": "string",
          "name": "_hash",
          "type": "string"
        }
      ],
      "name": "simpanAspirasi",
      "outputs": [],
      "stateMutability": "nonpayable",
      "type": "function"
    },
    {
      "inputs": [
        {
          "internalType": "uint256",
          "name": "_id",
          "type": "uint256"
        }
      ],
      "name": "getAspirasi",
      "outputs": [
        {
          "components": [
            {
              "internalType": "uint256",
              "name": "id",
              "type": "uint256"
            },
            {
              "internalType": "string",
              "name": "judul",
              "type": "string"
            },
            {
              "internalType": "string",
              "name": "hash",
              "type": "string"
            },
            {
              "internalType": "address",
              "name": "pengirim",
              "type": "address"
            },
            {
              "internalType": "uint256",
              "name": "timestamp",
              "type": "uint256"
            }
          ],
          "internalType": "struct AspirasiStorage.Aspirasi",
          "name": "",
          "type": "tuple"
        }
      ],
      "stateMutability": "view",
      "type": "function",
      "constant": true
    }
  ],
  "bytecode": "0x6080604052600060015534801561001557600080fd5b50610864806100256000396000f3fe608060405234801561001057600080fd5b506004361061004c5760003560e01c8063172ce23b1461005157806340ec68771461006d578063c48f30571461008d578063fb3f372b146100a2575b600080fd5b61005a60015481565b6040519081526020015b60405180910390f35b61008061007b3660046104a3565b6100c6565b6040516100649190610502565b6100a061009b366004610611565b61026a565b005b6100b56100b03660046104a3565b61035a565b604051610064959493929190610675565b6101016040518060a0016040528060008152602001606081526020016060815260200160006001600160a01b03168152602001600081525090565b60008281526020818152604091829020825160a08101909352805483526001810180549192840191610132906106be565b80601f016020809104026020016040519081016040528092919081815260200182805461015e906106be565b80156101ab5780601f10610180576101008083540402835291602001916101ab565b820191906000526020600020905b81548152906001019060200180831161018e57829003601f168201915b505050505081526020016002820180546101c4906106be565b80601f01602080910402602001604051908101604052809291908181526020018280546101f0906106be565b801561023d5780601f106102125761010080835404028352916020019161023d565b820191906000526020600020905b81548152906001019060200180831161022057829003601f168201915b505050918352505060038201546001600160a01b0316602082015260049091015460409091015292915050565b6001805490600061027a836106f8565b90915550506040805160a081018252600180548083526020808401878152848601879052336060860152426080860152600092835290829052939020825181559251919291908201906102cd908261076e565b50604082015160028201906102e2908261076e565b5060608201516003820180546001600160a01b0319166001600160a01b039092169190911790556080909101516004909101556001546040517f3266ec10227945338fda24d6a8564e2f95d8edb68ef44df5740acd084299caa99161034e918590859033904290610675565b60405180910390a15050565b6000602081905290815260409020805460018201805491929161037c906106be565b80601f01602080910402602001604051908101604052809291908181526020018280546103a8906106be565b80156103f55780601f106103ca576101008083540402835291602001916103f5565b820191906000526020600020905b8154815290600101906020018083116103d857829003601f168201915b50505050509080600201805461040a906106be565b80601f0160208091040260200160405190810160405280929190818152602001828054610436906106be565b80156104835780601f1061045857610100808354040283529160200191610483565b820191906000526020600020905b81548152906001019060200180831161046657829003601f168201915b50505050600383015460049093015491926001600160a01b031691905085565b6000602082840312156104b557600080fd5b5035919050565b6000815180845260005b818110156104e2576020818501810151868301820152016104c6565b506000602082860101526020601f19601f83011685010191505092915050565b60208152815160208201526000602083015160a0604084015261052860c08401826104bc565b90506040840151601f1984830301606085015261054582826104bc565b91505060018060a01b036060850151166080840152608084015160a08401528091505092915050565b634e487b7160e01b600052604160045260246000fd5b600082601f83011261059557600080fd5b813567ffffffffffffffff808211156105b0576105b061056e565b604051601f8301601f19908116603f011681019082821181831017156105d8576105d861056e565b816040528381528660208588010111156105f157600080fd5b836020870160208301376000602085830101528094505050505092915050565b6000806040838503121561062457600080fd5b823567ffffffffffffffff8082111561063c57600080fd5b61064886838701610584565b9350602085013591508082111561065e57600080fd5b5061066b85828601610584565b9150509250929050565b85815260a06020820152600061068e60a08301876104bc565b82810360408401526106a081876104bc565b6001600160a01b039590951660608401525050608001529392505050565b600181811c908216806106d257607f821691505b6020821081036106f257634e487b7160e01b600052602260045260246000fd5b50919050565b60006001820161071857634e487b7160e01b600052601160045260246000fd5b5060010190565b601f82111561076957600081815260208120601f850160051c810160208610156107465750805b601f850160051c820191505b8181101561076557828155600101610752565b5050505b505050565b815167ffffffffffffffff8111156107885761078861056e565b61079c8161079684546106be565b8461071f565b602080601f8311600181146107d157600084156107b95750858301515b600019600386901b1c1916600185901b178555610765565b600085815260208120601f198616915b82811015610800578886015182559484019460019091019084016107e1565b508582101561081e5787850151600019600388901b60f8161c191681555b5050505050600190811b0190555056fea264697066735822122020f32b350e845a53f663f59ef604304b27f1dda173128f66bf70a0ed1d9e124b64736f6c63430008110033",
  "immutableReferences": {},
  "source": "// SPDX-License-Identifier: MIT\r\npragma solidity ^0.8.0;\r\n\r\ncontract AspirasiStorage {\r\n    struct Aspirasi {\r\n        uint id;\r\n        string judul;\r\n        string hash;\r\n        address pengirim;\r\n        uint timestamp;\r\n    }\r\n\r\n    mapping(uint => Aspirasi) public aspirasis;\r\n    uint public totalAspirasi = 0;\r\n\r\n    event AspirasiDisimpan(uint id, string judul, string hash, address pengirim, uint timestamp);\r\n\r\n    function simpanAspirasi(string memory _judul, string memory _hash) public {\r\n        totalAspirasi++;\r\n        aspirasis[totalAspirasi] = Aspirasi(totalAspirasi, _judul, _hash, msg.sender, block.timestamp);\r\n        emit AspirasiDisimpan(totalAspirasi, _judul, _hash, msg.sender, block.timestamp);\r\n    }\r\n\r\n    function getAspirasi(uint _id) public view returns (Aspirasi memory) {\r\n        return aspirasis[_id];\r\n    }\r\n}\r\n",
  "sourcePath": "D:\\blockchain\\contracts\\AspirasiStorage.sol",
  "compiler": {
    "name": "solc",
    "version": "0.8.17+commit.8df45f5f.Emscripten.clang"
  },
  "schemaVersion": "3.4.16",
  "updatedAt": "2025-10-07T19:07:59.926Z",
  "networkType": "ethereum",
  "devdoc": {
    "kind": "dev",
    "methods": {},
    "version": 1
  },
  "userdoc": {
    "kind": "user",
    "methods": {},
    "version": 1
  }
}